{
  "_format": "hh-sol-artifact-1",
  "contractName": "Arcadia",
  "sourceName": "contracts/MyNFT.sol",
  "abi": [
    {
      "inputs": [],
      "stateMutability": "nonpayable",
      "type": "constructor"
    },
    {
      "anonymous": false,
      "inputs": [
        {
          "indexed": true,
          "internalType": "address",
          "name": "owner",
          "type": "address"
        },
        {
          "indexed": true,
          "internalType": "address",
          "name": "approved",
          "type": "address"
        },
        {
          "indexed": true,
          "internalType": "uint256",
          "name": "tokenId",
          "type": "uint256"
        }
      ],
      "name": "Approval",
      "type": "event"
    },
    {
      "anonymous": false,
      "inputs": [
        {
          "indexed": true,
          "internalType": "address",
          "name": "owner",
          "type": "address"
        },
        {
          "indexed": true,
          "internalType": "address",
          "name": "operator",
          "type": "address"
        },
        {
          "indexed": false,
          "internalType": "bool",
          "name": "approved",
          "type": "bool"
        }
      ],
      "name": "ApprovalForAll",
      "type": "event"
    },
    {
      "anonymous": false,
      "inputs": [
        {
          "indexed": true,
          "internalType": "address",
          "name": "previousOwner",
          "type": "address"
        },
        {
          "indexed": true,
          "internalType": "address",
          "name": "newOwner",
          "type": "address"
        }
      ],
      "name": "OwnershipTransferred",
      "type": "event"
    },
    {
      "anonymous": false,
      "inputs": [
        {
          "indexed": true,
          "internalType": "address",
          "name": "from",
          "type": "address"
        },
        {
          "indexed": true,
          "internalType": "address",
          "name": "to",
          "type": "address"
        },
        {
          "indexed": true,
          "internalType": "uint256",
          "name": "tokenId",
          "type": "uint256"
        }
      ],
      "name": "Transfer",
      "type": "event"
    },
    {
      "inputs": [
        {
          "internalType": "address",
          "name": "to",
          "type": "address"
        },
        {
          "internalType": "uint256",
          "name": "tokenId",
          "type": "uint256"
        }
      ],
      "name": "approve",
      "outputs": [],
      "stateMutability": "nonpayable",
      "type": "function"
    },
    {
      "inputs": [
        {
          "internalType": "address",
          "name": "owner",
          "type": "address"
        }
      ],
      "name": "balanceOf",
      "outputs": [
        {
          "internalType": "uint256",
          "name": "",
          "type": "uint256"
        }
      ],
      "stateMutability": "view",
      "type": "function"
    },
    {
      "inputs": [],
      "name": "count",
      "outputs": [
        {
          "internalType": "uint256",
          "name": "",
          "type": "uint256"
        }
      ],
      "stateMutability": "view",
      "type": "function"
    },
    {
      "inputs": [
        {
          "internalType": "uint256",
          "name": "tokenId",
          "type": "uint256"
        }
      ],
      "name": "getApproved",
      "outputs": [
        {
          "internalType": "address",
          "name": "",
          "type": "address"
        }
      ],
      "stateMutability": "view",
      "type": "function"
    },
    {
      "inputs": [
        {
          "internalType": "address",
          "name": "owner",
          "type": "address"
        },
        {
          "internalType": "address",
          "name": "operator",
          "type": "address"
        }
      ],
      "name": "isApprovedForAll",
      "outputs": [
        {
          "internalType": "bool",
          "name": "",
          "type": "bool"
        }
      ],
      "stateMutability": "view",
      "type": "function"
    },
    {
      "inputs": [
        {
          "internalType": "string",
          "name": "uri",
          "type": "string"
        }
      ],
      "name": "isContentOwned",
      "outputs": [
        {
          "internalType": "bool",
          "name": "",
          "type": "bool"
        }
      ],
      "stateMutability": "view",
      "type": "function"
    },
    {
      "inputs": [],
      "name": "name",
      "outputs": [
        {
          "internalType": "string",
          "name": "",
          "type": "string"
        }
      ],
      "stateMutability": "view",
      "type": "function"
    },
    {
      "inputs": [],
      "name": "owner",
      "outputs": [
        {
          "internalType": "address",
          "name": "",
          "type": "address"
        }
      ],
      "stateMutability": "view",
      "type": "function"
    },
    {
      "inputs": [
        {
          "internalType": "uint256",
          "name": "tokenId",
          "type": "uint256"
        }
      ],
      "name": "ownerOf",
      "outputs": [
        {
          "internalType": "address",
          "name": "",
          "type": "address"
        }
      ],
      "stateMutability": "view",
      "type": "function"
    },
    {
      "inputs": [
        {
          "internalType": "address",
          "name": "recipient",
          "type": "address"
        },
        {
          "internalType": "string",
          "name": "metadataURI",
          "type": "string"
        }
      ],
      "name": "payToMint",
      "outputs": [
        {
          "internalType": "uint256",
          "name": "",
          "type": "uint256"
        }
      ],
      "stateMutability": "payable",
      "type": "function"
    },
    {
      "inputs": [],
      "name": "renounceOwnership",
      "outputs": [],
      "stateMutability": "nonpayable",
      "type": "function"
    },
    {
      "inputs": [
        {
          "internalType": "address",
          "name": "to",
          "type": "address"
        },
        {
          "internalType": "string",
          "name": "uri",
          "type": "string"
        }
      ],
      "name": "safeMint",
      "outputs": [],
      "stateMutability": "nonpayable",
      "type": "function"
    },
    {
      "inputs": [
        {
          "internalType": "address",
          "name": "from",
          "type": "address"
        },
        {
          "internalType": "address",
          "name": "to",
          "type": "address"
        },
        {
          "internalType": "uint256",
          "name": "tokenId",
          "type": "uint256"
        }
      ],
      "name": "safeTransferFrom",
      "outputs": [],
      "stateMutability": "nonpayable",
      "type": "function"
    },
    {
      "inputs": [
        {
          "internalType": "address",
          "name": "from",
          "type": "address"
        },
        {
          "internalType": "address",
          "name": "to",
          "type": "address"
        },
        {
          "internalType": "uint256",
          "name": "tokenId",
          "type": "uint256"
        },
        {
          "internalType": "bytes",
          "name": "_data",
          "type": "bytes"
        }
      ],
      "name": "safeTransferFrom",
      "outputs": [],
      "stateMutability": "nonpayable",
      "type": "function"
    },
    {
      "inputs": [
        {
          "internalType": "address",
          "name": "operator",
          "type": "address"
        },
        {
          "internalType": "bool",
          "name": "approved",
          "type": "bool"
        }
      ],
      "name": "setApprovalForAll",
      "outputs": [],
      "stateMutability": "nonpayable",
      "type": "function"
    },
    {
      "inputs": [
        {
          "internalType": "bytes4",
          "name": "interfaceId",
          "type": "bytes4"
        }
      ],
      "name": "supportsInterface",
      "outputs": [
        {
          "internalType": "bool",
          "name": "",
          "type": "bool"
        }
      ],
      "stateMutability": "view",
      "type": "function"
    },
    {
      "inputs": [],
      "name": "symbol",
      "outputs": [
        {
          "internalType": "string",
          "name": "",
          "type": "string"
        }
      ],
      "stateMutability": "view",
      "type": "function"
    },
    {
      "inputs": [
        {
          "internalType": "uint256",
          "name": "tokenId",
          "type": "uint256"
        }
      ],
      "name": "tokenURI",
      "outputs": [
        {
          "internalType": "string",
          "name": "",
          "type": "string"
        }
      ],
      "stateMutability": "view",
      "type": "function"
    },
    {
      "inputs": [
        {
          "internalType": "address",
          "name": "from",
          "type": "address"
        },
        {
          "internalType": "address",
          "name": "to",
          "type": "address"
        },
        {
          "internalType": "uint256",
          "name": "tokenId",
          "type": "uint256"
        }
      ],
      "name": "transferFrom",
      "outputs": [],
      "stateMutability": "nonpayable",
      "type": "function"
    },
    {
      "inputs": [
        {
          "internalType": "address",
          "name": "newOwner",
          "type": "address"
        }
      ],
      "name": "transferOwnership",
      "outputs": [],
      "stateMutability": "nonpayable",
      "type": "function"
    }
  ],
  "bytecode": "0x60806040523480156200001157600080fd5b506040518060400160405280600781526020017f41726361646961000000000000000000000000000000000000000000000000008152506040518060400160405280600281526020017f4152000000000000000000000000000000000000000000000000000000000000815250816000908051906020019062000096929190620001a6565b508060019080519060200190620000af929190620001a6565b505050620000d2620000c6620000d860201b60201c565b620000e060201b60201c565b620002bb565b600033905090565b6000600760009054906101000a900473ffffffffffffffffffffffffffffffffffffffff16905081600760006101000a81548173ffffffffffffffffffffffffffffffffffffffff021916908373ffffffffffffffffffffffffffffffffffffffff1602179055508173ffffffffffffffffffffffffffffffffffffffff168173ffffffffffffffffffffffffffffffffffffffff167f8be0079c531659141344cd1fd0a4f28419497f9722a3daafe3b4186f6b6457e060405160405180910390a35050565b828054620001b49062000256565b90600052602060002090601f016020900481019282620001d8576000855562000224565b82601f10620001f357805160ff191683800117855562000224565b8280016001018555821562000224579182015b828111156200022357825182559160200191906001019062000206565b5b50905062000233919062000237565b5090565b5b808211156200025257600081600090555060010162000238565b5090565b600060028204905060018216806200026f57607f821691505b602082108114156200028657620002856200028c565b5b50919050565b7f4e487b7100000000000000000000000000000000000000000000000000000000600052602260045260246000fd5b6134b180620002cb6000396000f3fe60806040526004361061011f5760003560e01c8063715018a6116100a0578063b88d4fde11610064578063b88d4fde146103ec578063c87b56dd14610415578063d204c45e14610452578063e985e9c51461047b578063f2fde38b146104b85761011f565b8063715018a6146103195780638da5cb5b1461033057806395d89b411461035b5780639f1cabc614610386578063a22cb465146103c35761011f565b806323b872dd116100e757806323b872dd1461021d57806342842e0e14610246578063615fd9e21461026f5780636352211e1461029f57806370a08231146102dc5761011f565b806301ffc9a71461012457806306661abd1461016157806306fdde031461018c578063081812fc146101b7578063095ea7b3146101f4575b600080fd5b34801561013057600080fd5b5061014b60048036038101906101469190612330565b6104e1565b604051610158919061281a565b60405180910390f35b34801561016d57600080fd5b506101766105c3565b6040516101839190612ad7565b60405180910390f35b34801561019857600080fd5b506101a16105d4565b6040516101ae9190612835565b60405180910390f35b3480156101c357600080fd5b506101de60048036038101906101d991906123c3565b610666565b6040516101eb91906127b3565b60405180910390f35b34801561020057600080fd5b5061021b600480360381019061021691906122f4565b6106eb565b005b34801561022957600080fd5b50610244600480360381019061023f919061219a565b610803565b005b34801561025257600080fd5b5061026d6004803603810190610268919061219a565b610863565b005b610289600480360381019061028491906122a0565b610883565b6040516102969190612ad7565b60405180910390f35b3480156102ab57600080fd5b506102c660048036038101906102c191906123c3565b6109b0565b6040516102d391906127b3565b60405180910390f35b3480156102e857600080fd5b5061030360048036038101906102fe9190612135565b610a62565b6040516103109190612ad7565b60405180910390f35b34801561032557600080fd5b5061032e610b1a565b005b34801561033c57600080fd5b50610345610ba2565b60405161035291906127b3565b60405180910390f35b34801561036757600080fd5b50610370610bcc565b60405161037d9190612835565b60405180910390f35b34801561039257600080fd5b506103ad60048036038101906103a89190612382565b610c5e565b6040516103ba919061281a565b60405180910390f35b3480156103cf57600080fd5b506103ea60048036038101906103e59190612264565b610c99565b005b3480156103f857600080fd5b50610413600480360381019061040e91906121e9565b610caf565b005b34801561042157600080fd5b5061043c600480360381019061043791906123c3565b610d11565b6040516104499190612835565b60405180910390f35b34801561045e57600080fd5b50610479600480360381019061047491906122a0565b610d23565b005b34801561048757600080fd5b506104a2600480360381019061049d919061215e565b610dd0565b6040516104af919061281a565b60405180910390f35b3480156104c457600080fd5b506104df60048036038101906104da9190612135565b610e64565b005b60007f80ac58cd000000000000000000000000000000000000000000000000000000007bffffffffffffffffffffffffffffffffffffffffffffffffffffffff1916827bffffffffffffffffffffffffffffffffffffffffffffffffffffffff191614806105ac57507f5b5e139f000000000000000000000000000000000000000000000000000000007bffffffffffffffffffffffffffffffffffffffffffffffffffffffff1916827bffffffffffffffffffffffffffffffffffffffffffffffffffffffff1916145b806105bc57506105bb82610f5c565b5b9050919050565b60006105cf6008610fc6565b905090565b6060600080546105e390612d2d565b80601f016020809104026020016040519081016040528092919081815260200182805461060f90612d2d565b801561065c5780601f106106315761010080835404028352916020019161065c565b820191906000526020600020905b81548152906001019060200180831161063f57829003601f168201915b5050505050905090565b600061067182610fd4565b6106b0576040517f08c379a00000000000000000000000000000000000000000000000000000000081526004016106a7906129f7565b60405180910390fd5b6004600083815260200190815260200160002060009054906101000a900473ffffffffffffffffffffffffffffffffffffffff169050919050565b60006106f6826109b0565b90508073ffffffffffffffffffffffffffffffffffffffff168373ffffffffffffffffffffffffffffffffffffffff161415610767576040517f08c379a000000000000000000000000000000000000000000000000000000000815260040161075e90612a77565b60405180910390fd5b8073ffffffffffffffffffffffffffffffffffffffff16610786611040565b73ffffffffffffffffffffffffffffffffffffffff1614806107b557506107b4816107af611040565b610dd0565b5b6107f4576040517f08c379a00000000000000000000000000000000000000000000000000000000081526004016107eb90612937565b60405180910390fd5b6107fe8383611048565b505050565b61081461080e611040565b82611101565b610853576040517f08c379a000000000000000000000000000000000000000000000000000000000815260040161084a90612a97565b60405180910390fd5b61085e8383836111df565b505050565b61087e83838360405180602001604052806000815250610caf565b505050565b600060016009836040516108979190612778565b908152602001604051809103902060009054906101000a900460ff1660ff1614156108f7576040517f08c379a00000000000000000000000000000000000000000000000000000000081526004016108ee90612ab7565b60405180910390fd5b6601c6bf52634000341015610941576040517f08c379a000000000000000000000000000000000000000000000000000000000815260040161093890612a17565b60405180910390fd5b600061094d6008610fc6565b90506109596008611446565b600160098460405161096b9190612778565b908152602001604051809103902060006101000a81548160ff021916908360ff16021790555061099b848261145c565b6109a58184611636565b600191505092915050565b6000806002600084815260200190815260200160002060009054906101000a900473ffffffffffffffffffffffffffffffffffffffff169050600073ffffffffffffffffffffffffffffffffffffffff168173ffffffffffffffffffffffffffffffffffffffff161415610a59576040517f08c379a0000000000000000000000000000000000000000000000000000000008152600401610a5090612977565b60405180910390fd5b80915050919050565b60008073ffffffffffffffffffffffffffffffffffffffff168273ffffffffffffffffffffffffffffffffffffffff161415610ad3576040517f08c379a0000000000000000000000000000000000000000000000000000000008152600401610aca90612957565b60405180910390fd5b600360008373ffffffffffffffffffffffffffffffffffffffff1673ffffffffffffffffffffffffffffffffffffffff168152602001908152602001600020549050919050565b610b22611040565b73ffffffffffffffffffffffffffffffffffffffff16610b40610ba2565b73ffffffffffffffffffffffffffffffffffffffff1614610b96576040517f08c379a0000000000000000000000000000000000000000000000000000000008152600401610b8d90612a37565b60405180910390fd5b610ba060006116aa565b565b6000600760009054906101000a900473ffffffffffffffffffffffffffffffffffffffff16905090565b606060018054610bdb90612d2d565b80601f0160208091040260200160405190810160405280929190818152602001828054610c0790612d2d565b8015610c545780601f10610c2957610100808354040283529160200191610c54565b820191906000526020600020905b815481529060010190602001808311610c3757829003601f168201915b5050505050905090565b60006001600983604051610c729190612778565b908152602001604051809103902060009054906101000a900460ff1660ff16149050919050565b610cab610ca4611040565b8383611770565b5050565b610cc0610cba611040565b83611101565b610cff576040517f08c379a0000000000000000000000000000000000000000000000000000000008152600401610cf690612a97565b60405180910390fd5b610d0b848484846118dd565b50505050565b6060610d1c82611939565b9050919050565b610d2b611040565b73ffffffffffffffffffffffffffffffffffffffff16610d49610ba2565b73ffffffffffffffffffffffffffffffffffffffff1614610d9f576040517f08c379a0000000000000000000000000000000000000000000000000000000008152600401610d9690612a37565b60405180910390fd5b6000610dab6008610fc6565b9050610db76008611446565b610dc18382611a8b565b610dcb8183611636565b505050565b6000600560008473ffffffffffffffffffffffffffffffffffffffff1673ffffffffffffffffffffffffffffffffffffffff16815260200190815260200160002060008373ffffffffffffffffffffffffffffffffffffffff1673ffffffffffffffffffffffffffffffffffffffff16815260200190815260200160002060009054906101000a900460ff16905092915050565b610e6c611040565b73ffffffffffffffffffffffffffffffffffffffff16610e8a610ba2565b73ffffffffffffffffffffffffffffffffffffffff1614610ee0576040517f08c379a0000000000000000000000000000000000000000000000000000000008152600401610ed790612a37565b60405180910390fd5b600073ffffffffffffffffffffffffffffffffffffffff168173ffffffffffffffffffffffffffffffffffffffff161415610f50576040517f08c379a0000000000000000000000000000000000000000000000000000000008152600401610f4790612877565b60405180910390fd5b610f59816116aa565b50565b60007f01ffc9a7000000000000000000000000000000000000000000000000000000007bffffffffffffffffffffffffffffffffffffffffffffffffffffffff1916827bffffffffffffffffffffffffffffffffffffffffffffffffffffffff1916149050919050565b600081600001549050919050565b60008073ffffffffffffffffffffffffffffffffffffffff166002600084815260200190815260200160002060009054906101000a900473ffffffffffffffffffffffffffffffffffffffff1673ffffffffffffffffffffffffffffffffffffffff1614159050919050565b600033905090565b816004600083815260200190815260200160002060006101000a81548173ffffffffffffffffffffffffffffffffffffffff021916908373ffffffffffffffffffffffffffffffffffffffff160217905550808273ffffffffffffffffffffffffffffffffffffffff166110bb836109b0565b73ffffffffffffffffffffffffffffffffffffffff167f8c5be1e5ebec7d5bd14f71427d1e84f3dd0314c0f7b2291e5b200ac8c7c3b92560405160405180910390a45050565b600061110c82610fd4565b61114b576040517f08c379a000000000000000000000000000000000000000000000000000000000815260040161114290612917565b60405180910390fd5b6000611156836109b0565b90508073ffffffffffffffffffffffffffffffffffffffff168473ffffffffffffffffffffffffffffffffffffffff1614806111c557508373ffffffffffffffffffffffffffffffffffffffff166111ad84610666565b73ffffffffffffffffffffffffffffffffffffffff16145b806111d657506111d58185610dd0565b5b91505092915050565b8273ffffffffffffffffffffffffffffffffffffffff166111ff826109b0565b73ffffffffffffffffffffffffffffffffffffffff1614611255576040517f08c379a000000000000000000000000000000000000000000000000000000000815260040161124c90612897565b60405180910390fd5b600073ffffffffffffffffffffffffffffffffffffffff168273ffffffffffffffffffffffffffffffffffffffff1614156112c5576040517f08c379a00000000000000000000000000000000000000000000000000000000081526004016112bc906128d7565b60405180910390fd5b6112d0838383611aa9565b6112db600082611048565b6001600360008573ffffffffffffffffffffffffffffffffffffffff1673ffffffffffffffffffffffffffffffffffffffff168152602001908152602001600020600082825461132b9190612c43565b925050819055506001600360008473ffffffffffffffffffffffffffffffffffffffff1673ffffffffffffffffffffffffffffffffffffffff16815260200190815260200160002060008282546113829190612bbc565b92505081905550816002600083815260200190815260200160002060006101000a81548173ffffffffffffffffffffffffffffffffffffffff021916908373ffffffffffffffffffffffffffffffffffffffff160217905550808273ffffffffffffffffffffffffffffffffffffffff168473ffffffffffffffffffffffffffffffffffffffff167fddf252ad1be2c89b69c2b068fc378daa952ba7f163c4a11628f55a4df523b3ef60405160405180910390a4611441838383611aae565b505050565b6001816000016000828254019250508190555050565b600073ffffffffffffffffffffffffffffffffffffffff168273ffffffffffffffffffffffffffffffffffffffff1614156114cc576040517f08c379a00000000000000000000000000000000000000000000000000000000081526004016114c3906129b7565b60405180910390fd5b6114d581610fd4565b15611515576040517f08c379a000000000000000000000000000000000000000000000000000000000815260040161150c906128b7565b60405180910390fd5b61152160008383611aa9565b6001600360008473ffffffffffffffffffffffffffffffffffffffff1673ffffffffffffffffffffffffffffffffffffffff16815260200190815260200160002060008282546115719190612bbc565b92505081905550816002600083815260200190815260200160002060006101000a81548173ffffffffffffffffffffffffffffffffffffffff021916908373ffffffffffffffffffffffffffffffffffffffff160217905550808273ffffffffffffffffffffffffffffffffffffffff16600073ffffffffffffffffffffffffffffffffffffffff167fddf252ad1be2c89b69c2b068fc378daa952ba7f163c4a11628f55a4df523b3ef60405160405180910390a461163260008383611aae565b5050565b61163f82610fd4565b61167e576040517f08c379a000000000000000000000000000000000000000000000000000000000815260040161167590612997565b60405180910390fd5b806006600084815260200190815260200160002090805190602001906116a5929190611f59565b505050565b6000600760009054906101000a900473ffffffffffffffffffffffffffffffffffffffff16905081600760006101000a81548173ffffffffffffffffffffffffffffffffffffffff021916908373ffffffffffffffffffffffffffffffffffffffff1602179055508173ffffffffffffffffffffffffffffffffffffffff168173ffffffffffffffffffffffffffffffffffffffff167f8be0079c531659141344cd1fd0a4f28419497f9722a3daafe3b4186f6b6457e060405160405180910390a35050565b8173ffffffffffffffffffffffffffffffffffffffff168373ffffffffffffffffffffffffffffffffffffffff1614156117df576040517f08c379a00000000000000000000000000000000000000000000000000000000081526004016117d6906128f7565b60405180910390fd5b80600560008573ffffffffffffffffffffffffffffffffffffffff1673ffffffffffffffffffffffffffffffffffffffff16815260200190815260200160002060008473ffffffffffffffffffffffffffffffffffffffff1673ffffffffffffffffffffffffffffffffffffffff16815260200190815260200160002060006101000a81548160ff0219169083151502179055508173ffffffffffffffffffffffffffffffffffffffff168373ffffffffffffffffffffffffffffffffffffffff167f17307eab39ab6107e8899845ad3d59bd9653f200f220920489ca2b5937696c31836040516118d0919061281a565b60405180910390a3505050565b6118e88484846111df565b6118f484848484611ab3565b611933576040517f08c379a000000000000000000000000000000000000000000000000000000000815260040161192a90612857565b60405180910390fd5b50505050565b606061194482610fd4565b611983576040517f08c379a000000000000000000000000000000000000000000000000000000000815260040161197a906129d7565b60405180910390fd5b60006006600084815260200190815260200160002080546119a390612d2d565b80601f01602080910402602001604051908101604052809291908181526020018280546119cf90612d2d565b8015611a1c5780601f106119f157610100808354040283529160200191611a1c565b820191906000526020600020905b8154815290600101906020018083116119ff57829003601f168201915b505050505090506000611a2d611c4a565b9050600081511415611a43578192505050611a86565b600082511115611a78578082604051602001611a6092919061278f565b60405160208183030381529060405292505050611a86565b611a8184611c87565b925050505b919050565b611aa5828260405180602001604052806000815250611d2e565b5050565b505050565b505050565b6000611ad48473ffffffffffffffffffffffffffffffffffffffff16611d89565b15611c3d578373ffffffffffffffffffffffffffffffffffffffff1663150b7a02611afd611040565b8786866040518563ffffffff1660e01b8152600401611b1f94939291906127ce565b602060405180830381600087803b158015611b3957600080fd5b505af1925050508015611b6a57506040513d601f19601f82011682018060405250810190611b679190612359565b60015b611bed573d8060008114611b9a576040519150601f19603f3d011682016040523d82523d6000602084013e611b9f565b606091505b50600081511415611be5576040517f08c379a0000000000000000000000000000000000000000000000000000000008152600401611bdc90612857565b60405180910390fd5b805181602001fd5b63150b7a0260e01b7bffffffffffffffffffffffffffffffffffffffffffffffffffffffff1916817bffffffffffffffffffffffffffffffffffffffffffffffffffffffff191614915050611c42565b600190505b949350505050565b60606040518060400160405280600781526020017f697066733a2f2f00000000000000000000000000000000000000000000000000815250905090565b6060611c9282610fd4565b611cd1576040517f08c379a0000000000000000000000000000000000000000000000000000000008152600401611cc890612a57565b60405180910390fd5b6000611cdb611c4a565b90506000815111611cfb5760405180602001604052806000815250611d26565b80611d0584611dac565b604051602001611d1692919061278f565b6040516020818303038152906040525b915050919050565b611d38838361145c565b611d456000848484611ab3565b611d84576040517f08c379a0000000000000000000000000000000000000000000000000000000008152600401611d7b90612857565b60405180910390fd5b505050565b6000808273ffffffffffffffffffffffffffffffffffffffff163b119050919050565b60606000821415611df4576040518060400160405280600181526020017f30000000000000000000000000000000000000000000000000000000000000008152509050611f54565b600082905060005b60008214611e26578080611e0f90612d90565b915050600a82611e1f9190612c12565b9150611dfc565b60008167ffffffffffffffff811115611e68577f4e487b7100000000000000000000000000000000000000000000000000000000600052604160045260246000fd5b6040519080825280601f01601f191660200182016040528015611e9a5781602001600182028036833780820191505090505b5090505b60008514611f4d57600182611eb39190612c43565b9150600a85611ec29190612dd9565b6030611ece9190612bbc565b60f81b818381518110611f0a577f4e487b7100000000000000000000000000000000000000000000000000000000600052603260045260246000fd5b60200101907effffffffffffffffffffffffffffffffffffffffffffffffffffffffffffff1916908160001a905350600a85611f469190612c12565b9450611e9e565b8093505050505b919050565b828054611f6590612d2d565b90600052602060002090601f016020900481019282611f875760008555611fce565b82601f10611fa057805160ff1916838001178555611fce565b82800160010185558215611fce579182015b82811115611fcd578251825591602001919060010190611fb2565b5b509050611fdb9190611fdf565b5090565b5b80821115611ff8576000816000905550600101611fe0565b5090565b600061200f61200a84612b17565b612af2565b90508281526020810184848401111561202757600080fd5b612032848285612ceb565b509392505050565b600061204d61204884612b48565b612af2565b90508281526020810184848401111561206557600080fd5b612070848285612ceb565b509392505050565b6000813590506120878161341f565b92915050565b60008135905061209c81613436565b92915050565b6000813590506120b18161344d565b92915050565b6000815190506120c68161344d565b92915050565b600082601f8301126120dd57600080fd5b81356120ed848260208601611ffc565b91505092915050565b600082601f83011261210757600080fd5b813561211784826020860161203a565b91505092915050565b60008135905061212f81613464565b92915050565b60006020828403121561214757600080fd5b600061215584828501612078565b91505092915050565b6000806040838503121561217157600080fd5b600061217f85828601612078565b925050602061219085828601612078565b9150509250929050565b6000806000606084860312156121af57600080fd5b60006121bd86828701612078565b93505060206121ce86828701612078565b92505060406121df86828701612120565b9150509250925092565b600080600080608085870312156121ff57600080fd5b600061220d87828801612078565b945050602061221e87828801612078565b935050604061222f87828801612120565b925050606085013567ffffffffffffffff81111561224c57600080fd5b612258878288016120cc565b91505092959194509250565b6000806040838503121561227757600080fd5b600061228585828601612078565b92505060206122968582860161208d565b9150509250929050565b600080604083850312156122b357600080fd5b60006122c185828601612078565b925050602083013567ffffffffffffffff8111156122de57600080fd5b6122ea858286016120f6565b9150509250929050565b6000806040838503121561230757600080fd5b600061231585828601612078565b925050602061232685828601612120565b9150509250929050565b60006020828403121561234257600080fd5b6000612350848285016120a2565b91505092915050565b60006020828403121561236b57600080fd5b6000612379848285016120b7565b91505092915050565b60006020828403121561239457600080fd5b600082013567ffffffffffffffff8111156123ae57600080fd5b6123ba848285016120f6565b91505092915050565b6000602082840312156123d557600080fd5b60006123e384828501612120565b91505092915050565b6123f581612c77565b82525050565b61240481612c89565b82525050565b600061241582612b79565b61241f8185612b8f565b935061242f818560208601612cfa565b61243881612ec6565b840191505092915050565b600061244e82612b84565b6124588185612ba0565b9350612468818560208601612cfa565b61247181612ec6565b840191505092915050565b600061248782612b84565b6124918185612bb1565b93506124a1818560208601612cfa565b80840191505092915050565b60006124ba603283612ba0565b91506124c582612ed7565b604082019050919050565b60006124dd602683612ba0565b91506124e882612f26565b604082019050919050565b6000612500602583612ba0565b915061250b82612f75565b604082019050919050565b6000612523601c83612ba0565b915061252e82612fc4565b602082019050919050565b6000612546602483612ba0565b915061255182612fed565b604082019050919050565b6000612569601983612ba0565b91506125748261303c565b602082019050919050565b600061258c602c83612ba0565b915061259782613065565b604082019050919050565b60006125af603883612ba0565b91506125ba826130b4565b604082019050919050565b60006125d2602a83612ba0565b91506125dd82613103565b604082019050919050565b60006125f5602983612ba0565b915061260082613152565b604082019050919050565b6000612618602e83612ba0565b9150612623826131a1565b604082019050919050565b600061263b602083612ba0565b9150612646826131f0565b602082019050919050565b600061265e603183612ba0565b915061266982613219565b604082019050919050565b6000612681602c83612ba0565b915061268c82613268565b604082019050919050565b60006126a4601083612ba0565b91506126af826132b7565b602082019050919050565b60006126c7602083612ba0565b91506126d2826132e0565b602082019050919050565b60006126ea602f83612ba0565b91506126f582613309565b604082019050919050565b600061270d602183612ba0565b915061271882613358565b604082019050919050565b6000612730603183612ba0565b915061273b826133a7565b604082019050919050565b6000612753601383612ba0565b915061275e826133f6565b602082019050919050565b61277281612ce1565b82525050565b6000612784828461247c565b915081905092915050565b600061279b828561247c565b91506127a7828461247c565b91508190509392505050565b60006020820190506127c860008301846123ec565b92915050565b60006080820190506127e360008301876123ec565b6127f060208301866123ec565b6127fd6040830185612769565b818103606083015261280f818461240a565b905095945050505050565b600060208201905061282f60008301846123fb565b92915050565b6000602082019050818103600083015261284f8184612443565b905092915050565b60006020820190508181036000830152612870816124ad565b9050919050565b60006020820190508181036000830152612890816124d0565b9050919050565b600060208201905081810360008301526128b0816124f3565b9050919050565b600060208201905081810360008301526128d081612516565b9050919050565b600060208201905081810360008301526128f081612539565b9050919050565b600060208201905081810360008301526129108161255c565b9050919050565b600060208201905081810360008301526129308161257f565b9050919050565b60006020820190508181036000830152612950816125a2565b9050919050565b60006020820190508181036000830152612970816125c5565b9050919050565b60006020820190508181036000830152612990816125e8565b9050919050565b600060208201905081810360008301526129b08161260b565b9050919050565b600060208201905081810360008301526129d08161262e565b9050919050565b600060208201905081810360008301526129f081612651565b9050919050565b60006020820190508181036000830152612a1081612674565b9050919050565b60006020820190508181036000830152612a3081612697565b9050919050565b60006020820190508181036000830152612a50816126ba565b9050919050565b60006020820190508181036000830152612a70816126dd565b9050919050565b60006020820190508181036000830152612a9081612700565b9050919050565b60006020820190508181036000830152612ab081612723565b9050919050565b60006020820190508181036000830152612ad081612746565b9050919050565b6000602082019050612aec6000830184612769565b92915050565b6000612afc612b0d565b9050612b088282612d5f565b919050565b6000604051905090565b600067ffffffffffffffff821115612b3257612b31612e97565b5b612b3b82612ec6565b9050602081019050919050565b600067ffffffffffffffff821115612b6357612b62612e97565b5b612b6c82612ec6565b9050602081019050919050565b600081519050919050565b600081519050919050565b600082825260208201905092915050565b600082825260208201905092915050565b600081905092915050565b6000612bc782612ce1565b9150612bd283612ce1565b9250827fffffffffffffffffffffffffffffffffffffffffffffffffffffffffffffffff03821115612c0757612c06612e0a565b5b828201905092915050565b6000612c1d82612ce1565b9150612c2883612ce1565b925082612c3857612c37612e39565b5b828204905092915050565b6000612c4e82612ce1565b9150612c5983612ce1565b925082821015612c6c57612c6b612e0a565b5b828203905092915050565b6000612c8282612cc1565b9050919050565b60008115159050919050565b60007fffffffff0000000000000000000000000000000000000000000000000000000082169050919050565b600073ffffffffffffffffffffffffffffffffffffffff82169050919050565b6000819050919050565b82818337600083830152505050565b60005b83811015612d18578082015181840152602081019050612cfd565b83811115612d27576000848401525b50505050565b60006002820490506001821680612d4557607f821691505b60208210811415612d5957612d58612e68565b5b50919050565b612d6882612ec6565b810181811067ffffffffffffffff82111715612d8757612d86612e97565b5b80604052505050565b6000612d9b82612ce1565b91507fffffffffffffffffffffffffffffffffffffffffffffffffffffffffffffffff821415612dce57612dcd612e0a565b5b600182019050919050565b6000612de482612ce1565b9150612def83612ce1565b925082612dff57612dfe612e39565b5b828206905092915050565b7f4e487b7100000000000000000000000000000000000000000000000000000000600052601160045260246000fd5b7f4e487b7100000000000000000000000000000000000000000000000000000000600052601260045260246000fd5b7f4e487b7100000000000000000000000000000000000000000000000000000000600052602260045260246000fd5b7f4e487b7100000000000000000000000000000000000000000000000000000000600052604160045260246000fd5b6000601f19601f8301169050919050565b7f4552433732313a207472616e7366657220746f206e6f6e20455243373231526560008201527f63656976657220696d706c656d656e7465720000000000000000000000000000602082015250565b7f4f776e61626c653a206e6577206f776e657220697320746865207a65726f206160008201527f6464726573730000000000000000000000000000000000000000000000000000602082015250565b7f4552433732313a207472616e736665722066726f6d20696e636f72726563742060008201527f6f776e6572000000000000000000000000000000000000000000000000000000602082015250565b7f4552433732313a20746f6b656e20616c7265616479206d696e74656400000000600082015250565b7f4552433732313a207472616e7366657220746f20746865207a65726f2061646460008201527f7265737300000000000000000000000000000000000000000000000000000000602082015250565b7f4552433732313a20617070726f766520746f2063616c6c657200000000000000600082015250565b7f4552433732313a206f70657261746f7220717565727920666f72206e6f6e657860008201527f697374656e7420746f6b656e0000000000000000000000000000000000000000602082015250565b7f4552433732313a20617070726f76652063616c6c6572206973206e6f74206f7760008201527f6e6572206e6f7220617070726f76656420666f7220616c6c0000000000000000602082015250565b7f4552433732313a2062616c616e636520717565727920666f7220746865207a6560008201527f726f206164647265737300000000000000000000000000000000000000000000602082015250565b7f4552433732313a206f776e657220717565727920666f72206e6f6e657869737460008201527f656e7420746f6b656e0000000000000000000000000000000000000000000000602082015250565b7f45524337323155524953746f726167653a2055524920736574206f66206e6f6e60008201527f6578697374656e7420746f6b656e000000000000000000000000000000000000602082015250565b7f4552433732313a206d696e7420746f20746865207a65726f2061646472657373600082015250565b7f45524337323155524953746f726167653a2055524920717565727920666f722060008201527f6e6f6e6578697374656e7420746f6b656e000000000000000000000000000000602082015250565b7f4552433732313a20617070726f76656420717565727920666f72206e6f6e657860008201527f697374656e7420746f6b656e0000000000000000000000000000000000000000602082015250565b7f4e65656420746f20706179206d6f726500000000000000000000000000000000600082015250565b7f4f776e61626c653a2063616c6c6572206973206e6f7420746865206f776e6572600082015250565b7f4552433732314d657461646174613a2055524920717565727920666f72206e6f60008201527f6e6578697374656e7420746f6b656e0000000000000000000000000000000000602082015250565b7f4552433732313a20617070726f76616c20746f2063757272656e74206f776e6560008201527f7200000000000000000000000000000000000000000000000000000000000000602082015250565b7f4552433732313a207472616e736665722063616c6c6572206973206e6f74206f60008201527f776e6572206e6f7220617070726f766564000000000000000000000000000000602082015250565b7f4e465420616c7265616479206d696e7465642100000000000000000000000000600082015250565b61342881612c77565b811461343357600080fd5b50565b61343f81612c89565b811461344a57600080fd5b50565b61345681612c95565b811461346157600080fd5b50565b61346d81612ce1565b811461347857600080fd5b5056fea26469706673582212206076ba0aed43e9eac343fa419835ae011771df97c0cff148edde760adcf2b9a364736f6c63430008040033",
  "linkReferences": {},
  "deployedLinkReferences": {}
}